:020000040800F2
:10000000FCFF0020B1170000A9170000A91700008D
:10001000A9170000A9170000A9170000A9170000E0
:10002000A9170000A9170000A9170000A9170000D0
:10003000A9170000A9170000A9170000A9170000C0
:10004000A9170000A9170000A9170000A9170000B0
:10005000A9170000A9170000A9170000A9170000A0
:10006000A9170000A9170000A9170000A917000090
:10007000A9170000A9170000A9170000A917000080
:10008000A9170000A9170000A9170000A917000070
:10009000A9170000A9170000A9170000A917000060
:1000A000A9170000A9170000A9170000A917000050
:1000B000A9170000A9170000A9170000A917000040
:1000C000A9170000A9170000A9170000A917000030
:1000D000A9170000A9170000A9170000A917000020
:1000E000A9170000A9170000A9170000A917000010
:1000F000A9170000A9170000A9170000A917000000
:10010000A9170000A9170000A9170000A9170000EF
:10011000A9170000A9170000A9170000A9170000DF
:10012000A9170000A9170000A9170000A9170000CF
:10013000A9170000A9170000A9170000A9170000BF
:10014000A9170000A9170000A9170000A9170000AF
:1001500001480068704700BF3C00002082B0CDF825
:1001600000E0034619460191FFF7F2FF40F2E83143
:1001700000FB01F201990A601F490978C1F30311DC
:10018000C8B21E4909180878C0B21A1D1968C140C2
:10019000116019490988C1F3022188B21749091869
:1001A0000878C0B203F20802191D0968C140116045
:1001B00011490988C1F3C22188B210490918087889
:1001C000C0B203F20C02191D0968C14011600A494E
:1001D0000988C1F3813188B2094909180978C8B280
:1001E00003F2100203F20C010968B1FBF0F1116097
:1001F000DDF800E002B0704704100240441B00002C
:100200005216000083B0CDF800E000F0FF031A0999
:10021000104603F00F02134614E0194A02921FE041
:10022000184A02921CE0184A029219E0174A0292F8
:1002300016E0174A029213E0164A029210E0164A9C
:1002400002920DE00028E8D00128E9D00228EAD087
:100250000328EBD00428ECD00528EDD00628EED0FA
:10026000012212B29A40ADF8042002980A46BDF865
:10027000041000F091FCDDF800E003B0704700BF0F
:1002800000080140000C0140001001400014014032
:1002900000180140001C01400020014081B00023F3
:1002A0000360CB009BB242EA030304689BB244EABA
:1002B00003030360051D13141C462B6864F38203BB
:1002C0002B6000F21C0500242B6864F3CB232B6009
:1002D0000124036864F38613036001B07047FFFFD5
:1002E00081B00168C1F3801001B0704781B0CDF8D2
:1002F00000E0012252B23E490A6000F268010B6838
:100300006FF0006103EA0102144603F00061C90EB8
:100310000B4602F00041B1F1004F02D135490A68A5
:1003200001E035490A6804F47021090C0E464FF6C5
:10033000FF7104EA01010D4604F44011B1F5401FBC
:100340000DD16FF0706102EA01010E462A490A6878
:100350006FF070610A4028490A60324616E004F4E2
:100360008011B1F5801F09D14FF00301B140C9439D
:1003700002EA010141F070610A4607E0610D0901DE
:1003800005FA01F1C9430A4042F070622BB1610DD8
:10039000090105FA01F10A43FFE704F00041B1F158
:1003A000004F02D113490A6001E013490A6040F28C
:1003B000000A81464FEA8A0109EB01010968B1F19F
:1003C000FF3F10D009F134014FEA8A03C9180968C8
:1003D0000A4609EB0301096808461146FFF712FFB8
:1003E0000AF1010AE6E7DDF800E001B0704700BF5E
:1003F000000342421C0001400400014081B000F2B1
:100400000C02116000F208021368C3F3000202B983
:10041000F8E700F20C02126890B201B07047FFFFDB
:1004200081B00268C2F3401101B9FAE7011D096801
:1004300088B201B07047FFFF81B00168C1F340107E
:1004400001B0704789B0CDF800E0834698B28C4681
:10045000BDF824100A9E04ACADF80410ADF80800F5
:100460002046FFF77BFEBDF80800BDF80410644C81
:10047000A34512D101256DB2624C2560624D634CDB
:100480002560634D634C2560634D644C2560644D6D
:10049000644C2560079C039456E0634CA34512D13D
:1004A00001256DB2614C2560614D584C2560614D50
:1004B000584C2560604D594C2560604D594C256065
:1004C000069C039440E05E4CA34512D101256DB219
:1004D0005C4C25605C4D4D4C25605C4D4D4C256061
:1004E0005B4D4E4C25605B4D4E4C2560069C039445
:1004F0002AE0594CA34512D101256DB2574C256015
:10050000574D424C2560574D424C2560564D434C4B
:100510002560564D434C2560069C039414E0544CD2
:10052000A34511D101256DB2524C2560524D374C77
:100530002560524D374C2560514D384C2560514D4A
:10054000384C2560069C0394ADF80410ADF8080003
:100550003046FFF7CBFEBDF80800BDF804100BF1E4
:10056000100500242C600BF110052C680C432C6046
:100570000BF10C0500242C6018B140F4806080B2AF
:10058000FFE70BF10C052C6804432C600BF10C0603
:100590000125346865F34D3434600BF10C060125F8
:1005A000346865F3C30434600BF10C06012534682C
:1005B00065F3820434600BF1140500242C60039D64
:1005C000192465434FEA8C04B5FBF4F76424B7FBA8
:1005D000F4F42601350964246C433C1B240104F225
:1005E00032056424B5FBF4F404F00F0446EA040475
:1005F0000BF10805A4B22C60DDF800E009B07047EB
:100600000038014038034242BD0700004800002086
:10061000090700004C0000203907000050000020AE
:10062000F10900005400002000440040C40342428D
:10063000F50700008108000099080000B1080000DB
:1006400000480040C8034242D9070000C908000022
:10065000E108000051080000004C0040CC03424279
:10066000ED060000210A00004D090000090A000003
:1006700000500040D0034242D10600002107000094
:10068000510700001108000081B0ADF800100146CC
:10069000BDF800000B68C3F3C01202B9FAE70A1DE7
:1006A000106001B07047FFFF81B0CDF800E0019D00
:1006B0002C4610B408B493B28AB201460348FFF73F
:1006C000C1FE02B0DDF800E001B070470038014023
:1006D00081B0CDF800E081B20348FFF7D5FFDDF827
:1006E00000E001B0704700BF0050004081B0CDF87D
:1006F00000E081B20348FFF7C7FFDDF800E001B07A
:10070000704700BF004C004081B0CDF800E00348C6
:10071000FFF786FEDDF800E001B0704700380140C9
:1007200081B0CDF800E00348FFF77AFEDDF800E085
:1007300001B070470050004081B0CDF800E00348A0
:10074000FFF77AFEDDF800E001B0704700380140A5
:1007500081B0CDF800E00348FFF76EFEDDF800E061
:1007600001B070470050004081B0CDF800E081B288
:100770000348FFF743FEDDF800E001B0704700BF1B
:10078000003C004081B0CDF800E081B20348FFF7A3
:1007900035FEDDF800E001B0704700BF00380040D2
:1007A00081B0CDF800E081B20348FFF727FEDDF805
:1007B00000E001B0704700BF0030014081B0CDF8CB
:1007C00000E081B20348FFF75FFFDDF800E001B011
:1007D000704700BF0038014081B0CDF800E081B221
:1007E0000348FFF751FFDDF800E001B0704700BF9C
:1007F0000048004081B0CDF800E081B20348FFF727
:1008000043FFDDF800E001B0704700BF0044004046
:1008100081B0CDF800E00348FFF762FDDDF800E0AD
:1008200001B070470050004081B0CDF800E0019D5C
:100830002C4610B408B493B28AB201460348FFF7BD
:1008400001FE02B0DDF800E001B070470044004056
:1008500081B0CDF800E00348FFF742FDDDF800E08D
:1008600001B070470048004081B0CDF800E04FF083
:10087000420289B200F090F9DDF800E001B0704763
:1008800081B0CDF800E00348FFF7CAFDDDF800E0D5
:1008900001B070470044004081B0CDF800E003484B
:1008A000FFF7CAFDDDF800E001B0704700440040EA
:1008B00081B0CDF800E00348FFF712FDDDF800E05D
:1008C00001B070470044004081B0CDF800E003481B
:1008D000FFF7A6FDDDF800E001B0704700480040DA
:1008E00081B0CDF800E00348FFF7A6FDDDF800E099
:1008F00001B070470048004083B0CDF800E08DF8AB
:10090000040002910B4C0C4B1C600C4C0C4B1C60FB
:10091000012464B20B4B1C601046FFF7E7FC029AFF
:100920009DF804100848FFF7B9FCDDF800E003B0BB
:10093000704700BFFFFFFFFF400000206907000075
:1009400044000020BC034242003C004081B0CDF88E
:1009500000E00348FFF770FDDDF800E001B07047EC
:10096000004C004081B0194900EA0101084600220C
:100970000EE0042022E0082020E010201EE02020CD
:100980001CE040201AE0802018E040F2001015E042
:100990000F498842EDD00F498842ECD00E49884279
:1009A000EBD00E498842EAD00D498842E9D00D4982
:1009B0008842E8D00C498842E7D010460B490968C4
:1009C00041EA000209490A6001B0704700FCFFFFDC
:1009D00000080140000C01400010014000140140DB
:1009E00000180140001C0140002001401810024086
:1009F00081B0CDF800E00348FFF772FCDDF800E0BD
:100A000001B070470038014081B0CDF800E00348E4
:100A1000FFF766FCDDF800E001B07047004C0040D5
:100A200081B0CDF800E00348FFF7FAFCDDF800E004
:100A300001B07047004C004081B0CDF800E0019D4E
:100A40002C4610B408B493B28AB201460348FFF7AB
:100A5000F9FC02B0DDF800E001B07047004800404A
:100A600001490860704700BF98812142026803492C
:100A70000A60011D0A6802490A60704724000020CC
:100A80002800002001490860704700BF9C81214276
:100A900001490860704700BFB081224201490860E7
:100AA000704700BF9881224201490860704700BF2B
:100AB0009481224200F208010A6801490A607047E5
:100AC0002C00002081B0CDF800E0044C2468A04741
:100AD000C0B2DDF800E001B0704700BF3000002078
:100AE00083B0CDF800E08AB2014690B283B2421ED4
:100AF00090B26BB10A78D4B2ADF804000291A0B202
:100B0000054C2468A0470299BDF80400491CEDE794
:100B1000DDF800E003B070472400002081B0CDF87C
:100B200000E0044C2468A047C0B2DDF800E001B04A
:100B3000704700BF3400002044F67F77C0F21207F0
:100B40007F1EFDD100BF00BF00BF00BF00BF7047C8
:100B5000026806490A60011D0A6805490A6000F238
:100B600008010A6803490A60704700BF3800002086
:100B7000300000203400002081B0CDF800E0017882
:100B8000CCB2A0B2034C2468A0470020DDF800E0FE
:100B900001B070472000002081B0CDF800E08CB299
:100BA0001546774B00EA03031E461846FFF7DAFEA8
:100BB000B4F1FF0F0CD1734B9D4203D14FF033338F
:100BC0003360D9E0422D03D14FF044333360D3E09A
:100BD0004FF6FF739C4214D16A4B9D4207D14FF0F0
:100BE00033333360341D4FF033332360C4E0422D80
:100BF00007D14FF044333360341D4FF0443323604A
:100C0000BAE00021002005F001030BB100211DE036
:100C100005F0020333B105F4C0730BB1082100E005
:100C2000042113E005F0040333B105F020030BB1F8
:100C3000042100E0002109E005F0080333B105F0CC
:100C400020030BB10C2100E00821FFE74E4B05EA21
:100C500003030BB1032009E005F400730BB102207C
:100C600004E005F480630BB10120FFE705F00C03FD
:100C70000BB10143FFE704F0FF039BB2002B3BD015
:100C8000376800201FFA84F832462E4608282CD2F6
:100C90004FF0010303FA00F408EA0403A34222D14F
:100CA00085004FF00F03AB40DB4307EA030401FA72
:100CB00005F344EA03031D4606F48173B3F5817F0F
:100CC00005D102F214044FF001038340236006F0C3
:100CD0008203822B05D102F210044FF001038340FE
:100CE00023602F46FFE7401CD0E717601FFA88F00B
:100CF0000F463146164602E00F462946A0B2B0F133
:100D0000FF0F39D9331DD3F800800022082A30D2D2
:100D100002F208044FF0010303FA04F400EA0403AA
:100D2000A34224D195004FF00F03AB40DB4308EA08
:100D3000030807FA05F348EA030801F48173B3F5E1
:100D4000817F07D106F2140502F208044FF0010377
:100D5000A3402B6001F08203822B07D106F210051D
:100D600002F208044FF00103A3402B60FFE7521C7E
:100D7000CCE7331DC3F80080DDF800E001B0704718
:100D800000FCFFFF1400080000080800014908608B
:100D9000704700BF9001214281B0CDF800E0A9E08A
:100DA000012905D140F220016548FFF75DFD04E00F
:100DB00040F22001624800F001FBBBE0012905D1AF
:100DC00040F208015F48FFF74FFD04E040F20801E0
:100DD0005C4800F0F3FAADE0012905D144F20001CE
:100DE0005948FFF741FD04E044F20001564800F085
:100DF000E5FA9FE0012905D140F200415148FFF793
:100E000033FD04E040F200414E4800F0D7FA91E093
:100E1000012905D140F600014A48FFF725FD04E00D
:100E200040F60001474800F0C9FA83E0012905D1E6
:100E300041F200014348FFF717FD04E041F20001D1
:100E4000404800F0BBFA75E0012905D141F20001EC
:100E50003D48FFF709FD04E041F200013A4800F087
:100E6000ADFA67E0012905D140F600013648FFF7E9
:100E7000FBFC04E040F60001334800F09FFA59E023
:100E8000012905D140F240012F48FFF7EDFC04E0B5
:100E900040F240012C4800F091FA4BE0012905D1C5
:100EA00040F220012848FFF7DFFC04E040F2200177
:100EB000254800F083FA3DE0012905D140F24001C8
:100EC0002248FFF7D1FC04E040F240011F4800F047
:100ED00075FA2FE0012905D140F280011B48FFF788
:100EE000C3FC04E040F28001184800F067FA21E0FA
:100EF000012020E000283FF453AF01283FF45EAF0B
:100F000002283FF469AF03283FF474AF04283FF48C
:100F10007FAF05283FF48AAF06283FF495AF072836
:100F2000A0D00828ACD00928B8D00A28C4D00B28F3
:100F3000D0D0DDE70020DDF800E001B0704700BF51
:100F4000000801400010014000140140000C014065
:100F500081B0CDF800E0A9E0012905D140F21001EF
:100F60006548FFF781FC04E040F21001624800F0A0
:100F700025FABBE0012905D140F204015F48FFF7E3
:100F800073FC04E040F204015C4800F017FAADE0A5
:100F9000012905D142F200015948FFF765FC04E040
:100FA00042F20001564800F009FA9FE0012905D1FC
:100FB00040F200415148FFF757FC04E040F2004185
:100FC0004E4800F0FBF991E0012905D140F60001FF
:100FD0004A48FFF749FC04E040F60001474800F0AA
:100FE000EDF983E0012905D141F200014348FFF703
:100FF0003BFC04E041F20001404800F0DFF975E0FD
:10100000012905D140F201013B48FFF72DFC04E026
:1010100040F20101384800F0D1F967E0012905D11B
:1010200040F200413648FFF71FFC04E040F2004167
:10103000334800F0C3F959E0012905D140F20021FD
:101040002F48FFF711FC04E040F200212C4800F08B
:10105000B5F94BE0012905D140F200112848FFF70E
:1010600003FC04E040F20011254800F0A7F93DE040
:10107000012905D140F240012248FFF7F5FB04E0C9
:1010800040F240011F4800F099F92FE0012905D1F5
:1010900040F280011B48FFF7E7FB04E040F28001CB
:1010A000184800F08BF921E0012020E000283FF4EF
:1010B00053AF01283FF45EAF02283FF469AF032825
:1010C0003FF474AF04283FF47FAF05283FF48AAFA4
:1010D00006283FF495AF0728A0D00828ACD00928EF
:1010E000B8D00A28C4D00B28D0D0DDE70020DDF826
:1010F00000E001B0704700BF00080140001001404F
:1011000000140140000C014001490860704700BF15
:10111000A801224201490860704700BFAC01224289
:1011200001490860704700BF8801224201490860F8
:10113000704700BFB481224281B0CDF800E00B4D72
:1011400000F20C010C6800F208010B68011D0A682E
:101150000168084691B29AB2A3B220B4FFF764FBCB
:1011600001B00020DDF800E001B0704780190000F8
:1011700081B0CDF800E0011D0A680168C8B21146CF
:10118000034AFFF7B9FB0020DDF800E001B070472B
:101190001419000081B0CDF800E0011D0A68016853
:1011A000C8B21146034AFFF7A7FB0020DDF800E0B4
:1011B00001B070471419000081B0CDF800E00B4D6C
:1011C00000F20C010C6800F208010B68011D0A68AE
:1011D0000168084691B29AB2A3B220B4FFF72CFC82
:1011E00001B00020DDF800E001B07047581A00009F
:1011F00081B0CDF800E0094902B440F2000340F2AA
:10120000000240F20001FFF74FFA01B0044A05491D
:101210000A600020DDF800E001B07047EC19000022
:10122000BD0700002000002081B0CDF800E0094992
:1012300002B440F2000340F2000240F20001FFF766
:10124000F3FA01B0044A05490A600020DDF800E025
:1012500001B0704780190000F50700002000002051
:1012600081B0CDF800E0094902B440F2000340F239
:10127000000240F20001FFF7DFFB01B0044A05491C
:101280000A600020DDF800E001B07047581A000045
:10129000D90700002000002081B0CDF800E0094906
:1012A00002B440F2000340F2000240F20001FFF7F6
:1012B000BBFA01B0044A05490A600020DDF800E0ED
:1012C00001B0704780190000F507000020000020E1
:1012D00001490860704700BFA80122420149086027
:1012E000704700BFAC01224201490860704700BF4F
:1012F0009881214201490860704700BF9C812142CA
:1013000001490860704700BFB88122420149086066
:10131000704700BF8C01224201490860704700BF3E
:101320009401214201490860704700BFA881224210
:1013300001490860704700BF8001214201490860EF
:10134000704700BFB001224201490860704700BFEA
:10135000A481224201490860704700BFB0012242C7
:1013600001490860704700BFB0812242014908600E
:10137000704700BFA081224281B0CDF800E05FFA43
:1013800081F95FFA82FA0FE05FFA8AF15FFA89F079
:10139000FFF7DEFD0DE05FFA8AF15FFA89F0FFF7F3
:1013A000FBFC06E0012004E00028EDD00128F2D08B
:1013B000F8E7DDF800E001B07047FFFF81B0CDF83D
:1013C00000E0044A89B2FFF7E7FBDDF800E001B076
:1013D000704700BF1400080081B0CDF800E08B46D4
:1013E00009E05846FFF7C4FE0AE05846FFF7D2FE70
:1013F00006E0012004E00028F3D00128F5D0F8E74A
:10140000DDF800E001B0704781B0CDF800E0FFF7F3
:1014100059FBDDF800E001B07047FFFF82B0CDF866
:1014200000E001AB42001A705A1C11700020084CF9
:101430002468A04701AA02211046FFF751FB0120B2
:10144000034C2468A047DDF800E002B0704700BFFD
:101450002C00002081B0CDF800E003460846FFF7DD
:1014600077FB1846FFF726FBDDF800E001B0704778
:1014700083B0CDF800E0024610460D228DF808201A
:101480000A228DF809201FE0FFF776FB23E002789F
:101490002AB10190FFF770FB0198401CF7E71AE0B2
:1014A00002782AB10190FFF767FB0198401CF7E72B
:1014B00002AA1046FFF760FB0DF109021046FFF784
:1014C0005BFB08E0062007E00029DDD00129DED023
:1014D0000229E5D0F6E70020DDF800E003B0704710
:1014E00081B0CDF800E003460846FFF7BFFA184682
:1014F000FFF7E0FA0120044C2468A047FFF71CFB2B
:10150000DDF800E001B070472C00002081B0CDF87C
:1015100000E011E00846FFF7A3FE16E00846FFF7DB
:10152000BBFE12E00846FFF763FE0EE00846FFF739
:101530007BFE0AE0012008E00028EBD00128EDD076
:101540002028EFD03028F1D0F4E7DDF800E001B03A
:101550007047FFFF81B0CDF800E009E00846FFF7D3
:101560002BFE0AE00846FFF7E7FD06E0012004E055
:101570000028F3D00128F5D0F8E7DDF800E001B04D
:101580007047FFFF81B0CDF800E0FFF7C7FADDF844
:1015900000E001B07047FFFF81B01CF8019B0BF821
:1015A000019BBBEB0A0FF8D101B0704781B0154821
:1015B000006840F0010113480160134913480160BD
:1015C00010480168124801400E4801600D4801684A
:1015D0006FF4802001400B4801600C4801686FF4F3
:1015E000FE00014009480160064801686FF0A05004
:1015F0000140044801604FF000010648016001B05D
:10160000704700BF001002400000FFF004100240CD
:10161000FFFFF6FE2C10024081B04FF000094FF0A2
:10162000000CBDEB0A0F04DCBDEB0B0F01DBD44655
:10163000EA464BF8049BBBEB0A0FFAD1BCEB0A0F4E
:1016400005DDE246D9F800B00BF1040BF1E701B07B
:10165000704702040608FFFF81B0CDF800E0FFF7F5
:1016600091FF01281ED1FFF7CFFEC2B20F490860DB
:1016700041F6FF27C0F2B7077F1EFDD100BF00BFB4
:1016800000BF00BF00BFD143C9B20848016041F6A6
:10169000FF27C0F2B70700BF00BF7F1EFDD100BF0C
:1016A00000BF00BFDDF800E001B070470C0C014046
:1016B00081B0CDF800E018491848FFF711FF18492C
:1016C0001648FFF7C7FE17480221FFF7D1FE44F680
:1016D0007F77C0F2120700BF00BF7F1EFDD100BFA1
:1016E00000BF00BF07210120FFF798FE0E4802212E
:1016F000FFF7BEFEFF210D48016041F6FF27C0F253
:10170000B7077F1EFDD100BF00BF00BF00BF00BFF5
:10171000DDF800E001B07047701B0000C41A000043
:10172000641B0000000000200C0000200C0C014095
:1017300081B0CDF800E04FF6FF711348FFF73EFE91
:10174000002202210020FFF717FE1048014600206A
:10175000FFF742FE0E4801460020FFF7FBFE42F273
:1017600080512020FFF7D2FE44F67F77C0F21207A7
:101770007F1EFDD100BF00BF00BF00BF00BFDDF86E
:1017800000E001B0704700BF000C0140781B000072
:10179000541B000081B002490248016001B070474B
:1017A000401901003C00002081B0FEE701B0704705
:1017B00000F00EF800F024FAFFF7ECFF00F0E0F97B
:1017C000FFF7B6FFFFF774FFFFF746FFFCE7FEE702
:1017D00081B0CDF800E0464A464B474C47494BF6AE
:1017E0008030814206D94648006840F002014448F2
:1017F000016011E045F6C050814206D940480068BA
:1018000040F001013E48016006E03D4801686FF08C
:10181000070001403A480160FFF7C8FE39480360FD
:1018200039480460394802EA00013948016002F091
:10183000010040B119463648006800F00200002857
:1018400000D1F8E700E0194602F4803040B10B46C1
:101850002F48006800F40030002800D1F8E700E0CD
:101860000B4602F0805068B12948006840F0805172
:10187000274801602648006800F00050002800D189
:10188000F8E7FFE702F0806078B12148006840F097
:1018900080611F48016011461A461D48006800F02B
:1018A0000060002800D1F8E701E011461A4601F077
:1018B000807070B11648006840F080711448016073
:1018C00011461348006800F0007000B9F9E70A46B5
:1018D000FFE70C48006800F00C01900000F00C00DD
:1018E000814200D0F5E7DDF800E001B0704700BFAD
:1018F0008100010502841D00440601004019010019
:1019000000200240041002402C100240FFFF0F0094
:10191000001002402A0000002B0000002C000000F4
:10192000FFFFFFFF000000000000000000000000BB
:1019300000000000000000000000000000000000A7
:101940000000000000000000180800001808000057
:101950001808000000000000000000000000000067
:101960000000000000000000000000000000000077
:10197000000000000000000000000000001120082E
:101980003500000036000000FFFFFFFF00000000F0
:101990000000000000000000000000000000000047
:1019A0000000000000000000000000000000000037
:1019B00000000000180800001800000000000000EF
:1019C0000000000000000000000000000000000017
:1019D0000000000000000000000000000000000007
:1019E00000000000000000000800000809000000DE
:1019F0000A000000FFFFFFFF0000000000000000E1
:101A000000000000000000000000000000000000D6
:101A100000000000000000000000000000000000C6
:101A2000180800001800000000000000000000007E
:101A300000000000000000000000000000000000A6
:101A40000000000000000000000000000000000096
:101A50000000000004000000380000003900000011
:101A6000FFFFFFFF0000000000000000000000007A
:101A70000000000000000000000000000000000066
:101A80000000000000000000000000001808000036
:101A9000180000000000000000000000000000002E
:101AA0000000000000000000000000000000000036
:101AB0000000000000000000000000000000000026
:101AC000300014088D0D0000211100002D110000C0
:101AD00009110000151100003D1300003113000032
:101AE00025130000491300006D130000E9120000E7
:101AF000F5120000FFFFFFFFFFFFFFFFFFFFFFFFEB
:101B0000FFFFFFFFFFFFFFFFFFFFFFFFFFFFFFFFE5
:101B1000FFFFFFFFFFFFFFFFFFFFFFFFFFFFFFFFD5
:101B2000FFFFFFFF496E697469616C697A65640043
:101B300041544136353730204E6F726D616C206DE7
:101B40006F64650000000000010203040102030449
:101B500006070809802500000000000000000000C2
:101B600000000000D9070000C9080000E1080000DB
:101B700069070000FFFFFFFF0700000005030000EA
:101B800000B5DFF814B0DFF814A0DFF814C0FFF7D9
:101B900003FD00BD704700BF0000002020000020B2
:101BA000241B0000FFFFFFFFFFFFFFFFFFFFFFFF02
:101BB000FFFFFFFFFFFFFFFFFFFFFFFFFFFFFFFF35
:101BC000FFFFFFFFFFFFFFFFFFFFFFFFFFFFFFFF25
:101BD000FFFFFFFFFFFFFFFFFFFFFFFFFFFFFFFF15
:101BE000FFFFFFFFFFFFFFFFFFFFFFFFFFFFFFFF05
:101BF000FFFFFFFFFFFFFFFFFFFFFFFFFFFFFFFFF5
:101C000000B5DFF810B0DFF810A0FFF705FD00BD4C
:101C1000704700BF0000002058000020FFFFFFFFBA
:00000001FF
