:1000000091EF0AF00000000000EF00F00000000097
:0A0010000000000000000000F3D71C
:0E001C00000189B102D08B9801D08B881200B0
:0E002A00000189B102D0899201D089821200B2
:0E003800000189B102D08B9C01D08B8C12008C
:0E004600000189B102D08B9601D08B8612008A
:0E005400000189B102D08B9801D08B88120078
:0E006200000189B102D0899801D0898812006E
:0E007000000189B102D08B9A01D08B8A120058
:0E007E00000189B102D08D9201D08D82120056
:0E008C00000189B102D08B9401D08B84120048
:0E009A00000189B102D08B9E01D08B8E120026
:0E00A800000189B102D08B9601D08B86120028
:0E00B600000189B102D08A9001D08A80120028
:0E00C400ACB202D00000FCD789C0ADFF120024
:1000D2000F0121B302D00000FBD789C01CFF120020
:0E00E200000189B102D08B9A01D08B8A1200E6
:1000F00089C0C9FF016A0150000A05E1000EC7B0BE
:0C010000010E016EF8D7C9CF01F012000B
:10010C0089C06AFF016A0150000A05E1000E68B05F
:0C011C00010E016EF8D76ACF01F012004E
:0E012800000189B102D08B9201D08B821200AF
:0E013600000189B102D08B9001D08B801200A5
:0E014400000189B102D08B9601D08B8612008B
:0E015200000189B102D08B9801D08B88120079
:0E016000000189B102D08D9001D08D80120077
:0E016E00000189B102D08A9401D08A84120067
:0E017C00000189B102D08B9601D08B86120053
:0E018A00000189B102D08B9801D08B88120041
:0E019800000189B102D08B9801D08B88120033
:0E01A600000189B102D08B9A01D08B8A120021
:0E01B400000189B102D08F9401D08F84120017
:0E01C200000189B102D08B9601D08B8612000D
:0E01D000000189B102D08F9001D08F80120003
:0E01DE00000189B102D08F9201D08F821200F1
:0E01EC00000189B102D08B9601D08B861200E3
:0E01FA00000189B102D08A9201D08A821200DF
:0E020800000189B102D08B9C01D08B8C1200BA
:0E021600000189B102D08B9801D08B881200B4
:0E022400000189B102D08B9E01D08B8E12009A
:0E023200000189B102D08D9601D08D86120098
:0E024000000189B102D0899401D08984120096
:0E024E00000189B102D08D9401D08D84120080
:0E025C00000189B102D0899001D08980120082
:10026A00FF0E0001716FFF0E726FFF0E736FFF0EAC
:10027A00746FF00E6D6F000E6E6F890E6F6F000E49
:10028A00706F949A8551040A02E1948601D094967B
:10029A009488C66AC79CC79E8551C6128751C612E2
:1002AA008651C712875305E08851000AD8B4C78C13
:0C02BA0003D08853D8A4C78CC68A120059
:1002C600C40E0001756F000E766F890E776F000EF3
:1002D600786FFF0E656FFF0E666F000E676F000E7C
:1002E600686FFF0E616FFF0E626F000E636F000E88
:1002F600646FFF0E696FFF0E6A6F000E6B6F000E64
:100306006C6FAC8A900EAB6E948E949C9EAA03D0B2
:08031600AECF00F0FBD712008E
:10031E00D20E0001756F000E766F890E776F000E8C
:10032E00786FFF0E656FFF0E666F000E676F000E23
:10033E00686FFF0E616FFF0E626F000E636F000E2F
:10034E00646FFF0E696FFF0E6A6F000E6B6F000E0B
:10035E006C6F0F01218B900E226F98849892A4AA35
:0A036E0003D01DCF00F0FBD71200F2
:10037800F250026EF29E0500FF6A0150FE6E0050B8
:08038800FD6E02BEF28E1200B0
:100390007FC082F080C083F081C084F021D0CF0E76
:1003A000AF6EAC9490DFD9D0670EAF6EAC948BDF9C
:1003B000D4D0CF0EAF6EAC8486DFCFD0670EAF6ED9
:1003C000AC8481DFCAD0440EAF6EAC847CDFC5D074
:1003D000220EAF6EAC8477DFC0D0050E006EBFD0AA
:1003E00082C0F6FF83C0F7FF84C0F8FF0900F5CF95
:1003F00001F00900F5CF02F00900F5CF03F0090084
:10040000F5CF04F0000E006E041808E10050031848
:1004100005E1120E021802E10150C00AC0E082C0DC
:10042000F6FF83C0F7FF84C0F8FF0900F5CF01F0A5
:100430000900F5CF02F00900F5CF03F00900F5CF70
:1004400004F0000E006E041808E10050031805E1E6
:10045000250E021802E10150800AA6E082C0F6FFD4
:1004600083C0F7FF84C0F8FF0900F5CF01F0090051
:10047000F5CF02F00900F5CF03F00900F5CF04F045
:10048000000E006E041808E10050031805E14B0E41
:10049000021802E10150000A8CE082C0F6FF83C01E
:1004A000F7FF84C0F8FF0900F5CF01F00900F5CF90
:1004B00002F00900F5CF03F00900F5CF04F0000EBB
:1004C000006E041808E10050031805E1960E0218AA
:1004D00002E10150000AD8B471D782C0F6FF83C090
:1004E000F7FF84C0F8FF0900F5CF01F00900F5CF50
:1004F00002F00900F5CF03F00900F5CF04F0000E7B
:10050000006E041808E10050031805E1E10E02181E
:1005100002E10150000AD8B456D782C0F6FF83C06A
:10052000F7FF84C0F8FF0900F5CF01F00900F5CF0F
:1005300002F00900F5CF03F00900F5CF04F00450F4
:10054000000A08E10350010A05E10250C20A02E173
:100550000150000AD8B43CD740D7000E006E1200FC
:1005600038D00F0120870D0E1F6F040E1E6F2185DE
:10057000D6DE7ED00F012087060E1F6F820E1E6F03
:100580002185CDDE75D00F012087030E1F6F400E31
:100590001E6F2185C4DE6CD00F012087010E1F6FF6
:1005A000A00E1E6F2185BBDE63D00F012087010ED8
:1005B0001F6F150E1E6F2185B2DE5AD00F012087E6
:1005C0001F6B8A0E1E6F2185AADE52D0060E006EAA
:1005D00058D0000E006E0001821908E10050811908
:1005E00005E1120E801902E17F51C00ABAE0000E47
:1005F000006E821908E10050811905E1250E80196D
:1006000002E17F51800AB6E0000E006E821908E117
:100610000050811905E14B0E801902E17F51000A5B
:10062000B2E0000E006E821908E10050811905E168
:10063000960E801902E17F51000AAEE0000E006EB6
:10064000821908E10050811905E1E10E801902E1EB
:100650007F51000AAAE08251000A08E18151010A93
:1006600005E18051C20A02E17F51000AA7E0AED73E
:10067000D20E526E000E536E890E546E000E556EE1
:04068000006A1200FA
:06068400050E006E1200DD
:10068A0021D0CF0EAF6EAC9419DE6BD0670EAF6E71
:10069A00AC9414DE66D0CF0EAF6EAC840FDE61D0A0
:1006AA00670EAF6EAC840ADE5CD0440EAF6EAC84CB
:1006BA0005DE57D0220EAF6EAC8400DE52D0060E95
:1006CA00006E58D00001000E006E821908E1005039
:1006DA00811905E1120E801902E17F51C00AD1E0A9
:1006EA00000E006E821908E10050811905E1250EFD
:1006FA00801902E17F51800AC9E0000E006E82195A
:10070A0008E10050811905E14B0E801902E17F5181
:10071A00000AC1E0000E006E821908E1005081193A
:10072A0005E1960E801902E17F51000AB9E0000E38
:10073A00006E821908E10050811905E1E10E801965
:10074A0002E17F51000AB1E08251000A08E18151B9
:10075A00010A05E18051C20A02E17F51000AAAE0BA
:10076A00AED7C40E526E000E536E890E546E000E32
:06077A00556E006A12003A
:1007800021D0CF0EAF6EAC949EDD6BD0670EAF6EF6
:10079000AC9499DD66D0CF0EAF6EAC8494DD61D0A1
:1007A000670EAF6EAC848FDD5CD0440EAF6EAC8450
:1007B0008ADD57D0220EAF6EAC8485DD52D0060E96
:1007C000006E58D00001000E006E821908E1005042
:1007D000811905E1120E801902E17F51C00AD1E0B2
:1007E000000E006E821908E10050811905E1250E06
:1007F000801902E17F51800AC9E0000E006E821963
:1008000008E10050811905E14B0E801902E17F518A
:10081000000AC1E0000E006E821908E10050811943
:1008200005E1960E801902E17F51000AB9E0000E41
:10083000006E821908E10050811905E1E10E80196E
:1008400002E17F51000AB1E08251000A08E18151C2
:10085000010A05E18051C20A02E17F51000AAAE0C3
:10086000AED7C40E526E000E536E890E546E000E3B
:06087000556E006A120043
:1008760057D0000180B102D0929401D0928476D0F4
:10088600000180B102D0969601D096866FD0000105
:1008960080B102D0969401D0968468D0000180B1D0
:1008A60002D0949601D0948661D0000180B102D026
:1008B600949801D094885AD0000180B102D0949ABD
:1008C60001D0948A53D0000180B102D0989001D013
:1008D60098804CD0000180B102D0939401D09384CB
:1008E60045D0000180B102D0989401D098843ED0C2
:1008F600000180B102D0989201D0988237D00001D1
:1009060080B102D0949601D0948630D0000180B197
:1009160002D0949801D0948829D0010E006E28D078
:1009260000017F51000AA5E07F51010AA9E07F512D
:10093600020AADE07F51030AB1E07F51040AB5E037
:100946007F51050AB9E07F51060ABDE07F51070ACB
:10095600C1E07F51080AC5E07F51090AC9E07F510D
:100966000A0ACDE07F510B0AD1E0D7D7000E006E00
:0209760012006D
:1009780057D0000180B102D0929201D0928276D0F5
:10098800000180B102D0929801D092886FD0000106
:1009980080B102D0969201D0968268D0000180B1D1
:1009A80002D0949601D0948661D0000180B102D023
:1009B800949801D094885AD0000180B102D0949ABA
:1009C80001D0948A53D0000180B102D0949401D010
:1009D80094844CD0000180B102D0939201D09382CC
:1009E80045D0000180B102D0949E01D0948E3ED0B3
:1009F800000180B102D0949C01D0948C37D00001C2
:100A080080B102D0949601D0948630D0000180B194
:100A180002D0949801D0948829D0010E006E28D075
:100A280000017F51000AA5E07F51010AA9E07F512A
:100A3800020AADE07F51030AB1E07F51040AB5E034
:100A48007F51050AB9E07F51060ABDE07F51070AC8
:100A5800C1E07F51080AC5E07F51090AC9E07F510A
:100A68000A0ACDE07F510B0AD1E0D7D7000E006EFD
:020A780012006A
:100A7A0057D0000180B102D0929001D0928076D0F6
:100A8A00000180B102D0949001D094806FD000010F
:100A9A0080B102D0969001D0968068D0000180B1D2
:100AAA0002D0949601D0948661D0000180B102D020
:100ABA00949801D094885AD0000180B102D0949AB7
:100ACA0001D0948A53D0000180B102D0949201D00F
:100ADA0094824CD0000180B102D0939001D09380CF
:100AEA0045D0000180B102D0949E01D0948E3ED0B0
:100AFA00000180B102D0949C01D0948C37D00001BF
:100B0A0080B102D0949601D0948630D0000180B191
:100B1A0002D0949801D0948829D0010E006E28D072
:100B2A0000017F51000AA5E07F51010AA9E07F5127
:100B3A00020AADE07F51030AB1E07F51040AB5E031
:100B4A007F51050AB9E07F51060ABDE07F51070AC5
:100B5A00C1E07F51080AC5E07F51090AC9E07F5107
:100B6A000A0ACDE07F510B0AD1E0D7D7000E006EFA
:020B7A00120067
:100B7C007FC0F6FF80C0F7FF81C0F8FF0900F5CFFA
:100B8C0085F0040E00017F25F66E000E8021F76EB5
:100B9C00000E8121F86E0900F5CF86F0080E7F2536
:100BAC00F66E000E8021F76E000E8121F86E0900A2
:100BBC00F5CF87F00C0E7F25F66E000E8021F76EB8
:100BCC00000E8121F86E0900F5CF88F035EC01F0AC
:060BDC00000E006E120085
:100BE2007FC082F080C083F081C084F027D0CF0E16
:100BF200AF6EAC9463EC01F0DED0670EAF6EAC94D6
:100C020063EC01F0D8D0CF0EAF6EAC8463EC01F090
:100C1200D2D0670EAF6EAC8463EC01F0CCD0440E40
:100C2200AF6EAC8463EC01F0C6D0220EAF6EAC8422
:100C320063EC01F0C0D0050E006EBFD082C0F6FF9B
:100C420083C0F7FF84C0F8FF0900F5CF01F0090067
:100C5200F5CF02F00900F5CF03F00900F5CF04F05B
:100C6200000E006E041808E10050031805E1120E90
:100C7200021802E10150C00ABAE082C0F6FF83C046
:100C8200F7FF84C0F8FF0900F5CF01F00900F5CFA6
:100C920002F00900F5CF03F00900F5CF04F0000ED1
:100CA200006E041808E10050031805E1250E021831
:100CB20002E10150800AA1E082C0F6FF83C0F7FF83
:100CC20084C0F8FF0900F5CF01F00900F5CF02F06A
:100CD2000900F5CF03F00900F5CF04F0000E006E15
:100CE200041808E10050031805E14B0E021802E156
:100CF2000150000A88E082C0F6FF83C0F7FF84C07B
:100D0200F8FF0900F5CF01F00900F5CF02F0090064
:100D1200F5CF03F00900F5CF04F0000E006E0418C1
:100D220008E10050031805E1960E021802E1015095
:100D3200000AD8B46ED782C0F6FF83C0F7FF84C022
:100D4200F8FF0900F5CF01F00900F5CF02F0090024
:100D5200F5CF03F00900F5CF04F0000E006E041881
:100D620008E10050031805E1E10E021802E101500A
:100D7200000AD8B454D782C0F6FF83C0F7FF84C0FC
:100D8200F8FF0900F5CF01F00900F5CF02F00900E4
:100D9200F5CF03F00900F5CF04F00450000A08E192
:100DA2000350010A05E10250C20A02E10150000AA1
:0C0DB200D8B43BD740D7000E006E1200F2
:100DBE007FC0F6FF80C0F7FF81C0F8FF0900F5CFB6
:100DCE0085F0040E00017F25F66E000E8021F76E71
:100DDE00000E8121F86E0900F5CF86F0080E7F25F2
:100DEE00F66E000E8021F76E000E8121F86E09005E
:100DFE00F5CF87F00C0E7F25F66E000E8021F76E74
:100E0E00000E8121F86E0900F5CF88F035EC01F067
:060E1E00000E006E120040
:100E24007FC0F6FF80C0F7FF81C0F8FF0900F5CF4F
:100E340085F0040E00017F25F66E000E8021F76E0A
:100E4400000E8121F86E0900F5CF86F0080E7F258B
:100E5400F66E000E8021F76E000E8121F86E0900F7
:100E6400F5CF87F00C0E7F25F66E000E8021F76E0D
:100E7400000E8121F86E0900F5CF88F035EC01F001
:060E8400000E006E1200DA
:100E8A007FC0F6FF80C0F7FF81C0F8FF0900F5CFE9
:100E9A004EF00900F5CF4FF00900F5CF50F00900E8
:100EAA00F5CF51F0040E00017F25F66E000E802169
:100EBA00F76E000E8121F86E0900F5CF5AF009008D
:100ECA00F5CF5BF00900F5CF5CF00900F5CF5DF0D6
:100EDA00080E7F25F66E000E8021F76E000E812126
:100EEA00F86E0900F5CF56F00900F5CF57F0090062
:0C0EFA00F5CF58F00900F5CF59F01200B8
:100F0600090E0B6E1E0E0C6EE40E0D6E0D2EFED728
:0C0F16000C2EFCD70B2EFAD700001200A6
:100F220054C0E1FF55C0E2FF7FC0E9FF80C0EAFF85
:100F3200EECFE6FF52C000F053C001F0BCEC01F06E
:040F4200006A12002F
:100F46007FC083F080C084F081C000F082C001F0D1
:100F5600010E0001815F000E825B0050011014E05B
:100F66004CC0E1FF4DC0E2FF83C0E9FF84C0EAFF49
:100F7600EECFE6FF4AC000F04BC001F0BCEC01F03A
:0A0F86000001834B842BE0D712001A
:100F900050C0E1FF51C0E2FF7FC0E6FF4EC000F04D
:0A0FA0004FC001F0BCEC01F012009C
:100FAA00080E00017F25F66E000E8021F76E000EF6
:100FBA008121F86E0900F5CF42F00900F5CF43F020
:0E0FCA000900F5CF44F00900F5CF45F0120004
:100FD8007FC0F6FF80C0F7FF81C0F8FF0900F5CF9A
:100FE8004AF00900F5CF4BF00900F5CF4CF00900A5
:100FF800F5CF4DF0040E00017F25F66E000E80211E
:10100800F76E000E8121F86E0900F5CF46F0090051
:10101800F5CF47F00900F5CF48F00900F5CF49F0C2
:021028001200B4
:10102A0027D0CF0EAF6EAC9463EC01F070D0670E90
:10103A00AF6EAC9463EC01F06AD0CF0EAF6EAC84A5
:10104A0063EC01F064D0670EAF6EAC8463EC01F020
:10105A005ED0440EAF6EAC8463EC01F058D0220E21
:10106A00AF6EAC8463EC01F052D0060E006E58D01D
:10107A000001000E006E821908E10050811905E195
:10108A00120E801902E17F51C00ACBE0000E006EF9
:10109A00821908E10050811905E1250E801902E143
:1010AA007F51800AC4E0000E006E821908E10050E8
:1010BA00811905E14B0E801902E17F51000ABDE05A
:1010CA00000E006E821908E10050811905E1960EA2
:1010DA00801902E17F51000AB6E0000E006E821903
:1010EA0008E10050811905E1E10E801902E17F5102
:1010FA00000AAFE08251000A08E18151010A05E1C4
:10110A008051C20A02E17F51000AA9E0AED7C40E9B
:10111A00526E000E536E890E546E000E556E006AA2
:02112A001200B1
:10112C001BD07AC07FF07BC080F07CC081F020DDCA
:10113C001ED07AC07FF07BC080F07CC081F06CDE6A
:10114C0016D07AC07FF07BC080F07CC081F031DE9D
:10115C000ED0010E006E0BD000017951000AE1E0B7
:10116C007951010AE6E07951020AEBE0F2D712005C
:08117C005FC07FF007DF1200E5
:1011840079C000F00036009000C05FF07AC060F0D3
:1011940044C0E1FF45C0E2FFE66A42C000F043C03C
:1011A40001F0BCEC01F05F0E00017F6F000E806F58
:1011B400020E816F000E826FC4DE44C0E1FF45C0A1
:1011C400E2FF010EE66E42C000F043C001F0BCEC49
:0411D40001F0120014
:1011D80017D07AC07FF07BC080F04BDC1CD07AC07F
:1011E8007FF07BC080F0BCEC04F015D07AC07FF0B3
:1011F8007BC080F03BEC04F00ED0010E006E0BD0EB
:1012080000017951000AE5E07951010AE8E07951D5
:08121800020AECE0F2D712001B
:101220001DD07AC07FF07BC080F07CC081F0D9DC1B
:1012300020D07AC07FF07BC080F07CC081F0C8EC09
:1012400001F017D07AC07FF07BC080F07CC081F0C5
:1012500042EC03F00ED0010E006E0BD0000179516C
:10126000000ADFE07951010AE4E07951020AEAE07C
:04127000F2D712009F
:101274007CC07FF07DC080F07EC081F004DE79C048
:0E1284007FF07AC080F07BC081F08DDE12001A
:101292002ED07AC07FF07BC080F07CC081F07DC010
:1012A20082F045EC03F031D07AC07FF07BC080F051
:1012B2007CC081F07DC082F0C0EC03F026D07AC001
:1012C2007FF07BC080F07CC081F07DC082F0B0EC0A
:1012D20002F01BD07AC07FF07BC080F07CC081F02E
:1012E2007DC082F0A1DE11D0010E006E0ED0000191
:1012F2007951000ACEE07951010AD6E07951020A09
:0C130200DEE07951100AE6E0EFD712009F
:10130E007CC07FF07DC080F07EC081F05EDE79C053
:10131E007FF07AC080F07BC081F040DE44C0E1FFF8
:10132E0045C0E2FF010EE66E42C000F043C001F080
:08133E00BCEC01F0E1DD12003E
:1013460079C07CF07AC07DF00D0E5F6E0A0E00014A
:10135600606F35D07CC07FF07DC080F0DFDD3AD095
:101366007CC0E9FF7DC0EAFFEE5209E07CC07FF059
:101376007DC080F0D3DD00017C4B7D2BF1D72AD0D8
:101386007CC0E9FF7DC0EAFFEE5209E07CC07FF039
:101396007DC080F0C3DD00017C4B7D2BF1D70001C1
:1013A6005F0E7F6F000E806FB9DD600E00017F6FEC
:1013B600000E806FB3DD0ED0060E006E0CD000015D
:1013C6007B51000AC7E07B51010ACAE07B51020A41
:0813D600D7E0F2D7006A120013
:1013DE000001796B020E7A6F7B6BF7DE0001796B81
:1013EE00BD0E7A6F150E7B6F000E7C6F98DE796BDB
:1013FE00EA0E7A6F150E7B6F000E7C6F0ADF020EFF
:10140E000001796F800E7A6F250E7B6F000E7C6F58
:10141E007D6F38DF090E0B6E1E0E0C6EE40E0D6E18
:10142E000D2EFED70C2EFCD70B2EFAD70000120075
:10143E000900F5CFE6FF0006FBE10106F9E1120017
:10144E005E6A090E5E5C11E2D90E5E24F66E150E12
:10145E00F76E000EF722000EF86E000EF82209004D
:10146E00F5CF5FF084DE5E2AECD7150E0001796FA2
:10147E00000E7A6F020E7B6F5FDFA30E0B6E570EA0
:10148E000C6E020E0D6E0D2EFED70C2EFCD70B2EF3
:06149E00FAD70000120065
:1014A400300E0001796F150E7A6F000E7B6FE20E1D
:1014B4007C6F150E7D6F000E7E6F27DF300E0001EE
:1014C400796F150E7A6F000E7B6FCD0E7C6F150E43
:1014D4007D6F000E7E6FCCDE220E796F000E7A6F68
:1014E400020E7B6F2EDF090E0B6E1E0E0C6EE40EC9
:1014F4000D6E0D2EFED70C2EFCD70B2EFAD7000046
:10150400010E0001796F070E7A6F3ADE2E0E00018C
:0E151400796F000E7A6F020E7B6F13DF1200EC
:0E152200F7EC0AF05BDFBDDF91DFFED7FFD7ED
:1015EE0010EE15F02D0E006E010E016E900EF66EC1
:0E15FE00150EF76E000EF86E1FEC0AF01200CC
:101530005C02890036018900600189007C01890014
:1015400052018900E200890028018900B600890063
:101550009A00890038008900460089001C00890033
:10156000FFFFFFFFFFFFFFFFFFFFFFFFFFFFFFFF8B
:10157000FFFFFFFFFFFFFFFFFFFFFFFFFFFFFFFF7B
:10158000FFFFFFFFFFFFFFFFFFFFFFFFFFFFFFFF6B
:0D1590004D4553534147452053454E5400EF
:0C159D00496E697469616C697A656400CC
:1015A90041544136353730204E6F726D616C206D74
:0415B9006F646500F6
:1015BD00020000000000000000000000000000001C
:0C15CD00C4008900FFFFFFFFFFFFFFFFCD
:0915D9004D696B726F450D0A00AB
:0815E200F0008900FFFFFFFF8C
:0415EA008025000058
:020000040030CA
:0E00000015137F7CF98B91FFFFC0FFE0FF40DE
:00000001FF
